:1000000061C000000C94EB2B0C94122C83C00000F8
:1000100081C000007FC000007DC000007BC00000E8
:1000200079C0000077C0000075C0000073C00000F8
:1000300071C000000C9488276DC000006BC00000E8
:100040000C94392C67C000000C94302F0C94622F54
:1000500061C000005FC000005DC000005BC0000028
:1000600059C0000057C00000000000080002010055
:100070000003040700000000000000000102040863
:100080001020408001020408102001020408102002
:10009000040404040404040402020202020203032E
:1000A00003030303000000002300260029000000D2
:1000B0000000250028002B0000000000240027007D
:1000C0002A00872F11241FBECFEFD8E0DEBFCDBF9F
:1000D00012E0A0E0B1E0E2E9F0E602C005900D9286
:1000E000A232B107D9F725E0A2E2B2E001C01D9229
:1000F000AA3FB207E1F710E0C2E6D0E004C02197C2
:10010000FE010E941830C136D107C9F70E94862827
:100110000C94473075CFFC01A781B0858C919185F7
:100120008923A481B5819C91408151816281738131
:100130002681922359F081110BC04F5F5F4F6F4FA3
:100140007F4F408351836283738308958111F5CF7C
:100150004150510961097109F4CF83E292E0DBCF8C
:100160008EE292E0D8CF89E392E0D5CF84E492E0AA
:10017000D2CFFC01A481B5818C9196818923A7817E
:10018000B0859C9140815181628173812185922348
:1001900059F0882359F04F5F5F4F6F4F7F4F408377
:1001A00051836283738308958823A9F341505109D1
:1001B00061097109F4CF83E292E0DBCF8EE292E035
:1001C000D8CF89E392E0D5CF84E492E0D2CF0F93E9
:1001D0001F93CF93DF93082F162FEA01A0912202DD
:1001E0008BE0A89FD0011124AD5DBD4F1D921D92E3
:1001F0001D921C92139781E01A968C931A97802F68
:1002000090E0FC01E458FF4FE4911696EC931697AA
:10021000FC01E057FF4FE491F0E0EE0FFF1FEC55BB
:10022000FF4F8591949115969C938E931497862FEA
:1002300090E0FC01E458FF4FE4911996EC93199774
:10024000FC01E057FF4FE491F0E0EE0FFF1FEC558B
:10025000FF4F8591949118969C938E93179760E029
:10026000802F0E949D2D60E0812F0E949D2D809106
:100270002202813081F1A0F0823009F445C0833040
:1002800009F45BC08091220291E0980F90932202C2
:10029000888390E080E0DF91CF911F910F910895C6
:1002A00080E0023021F08FEF033009F481E041E07B
:1002B00050E06DEA70E00E94CB2B80E0123021F01C
:1002C0008FEF133009F481E041E050E06BED70E016
:1002D0000E94CB2BD7CF80E0023021F08FEF03308C
:1002E00009F481E041E050E060EB70E00E94CB2B2C
:1002F00080E0123021F08FEF133009F481E041E00B
:1003000050E06EED70E0E4CF80E0023021F08FEF3E
:10031000033009F481E041E050E063EB70E00E94BB
:10032000CB2B80E0123021F08FEF133009F481E005
:1003300041E050E061EE70E0CBCF80E0023021F090
:100340008FEF033009F481E041E050E066EB70E0AC
:100350000E94CB2B80E0123021F08FEF133009F494
:1003600081E041E050E064EE70E0B2CF9BE0899F15
:10037000F0011124ED5DFD4F80819181A281B38157
:10038000FB0180839183A283B38390E080E0089592
:100390009BE0899FF0011124ED5DFD4F10821182D9
:1003A0001282138290E080E0089590E080E008954A
:1003B000611102C00C949D2D6130E1F362E0FACF2F
:1003C000662319F061E00C94D92D60E0FCCFCF9347
:1003D000282F8823E1F0CB01BA01CFEFC20FEC2F19
:1003E000F0E0E15BFD4F2081213059F490580E94EC
:1003F000E4299B01AC016C2F70E090E080E0CF918C
:10040000A2C00E94DF298C2FCF910C94192DCF917F
:1004100008950F931F938B019C0183E036952795D8
:10042000179507958A95D1F70D591D4F462F47709F
:1004300021E030E0F90102C0EE0FFF1F4A95E2F71C
:10044000AF01F80120812423CB010196211102C0C4
:1004500090E080E01F910F9108950F931F938B01FF
:100460009C0183E036952795179507958A95D1F7D6
:10047000677081E090E001C0880F6A95EAF7F801A3
:10048000ED59FD4F2081452B31F4809582238083E7
:100490001F910F910895822BFACF4F925F926F9226
:1004A0007F928F929F92AF92BF92CF92DF92EF9204
:1004B000FF920F931F93CF93DF934B015C012901B0
:1004C0003A01670161E0882D0E949D2DE40121968B
:1004D000AE01C501B401C1DF20E030E0A901C801CF
:1004E000B6010E94632B18168CF4F401E15BFD4FFA
:1004F00081E08083C801B6010E94E4296B01C30139
:10050000B2010E94E429A601C40121D0CE01DF91ED
:10051000CF911F910F91FF90EF90DF90CF90BF9000
:10052000AF909F908F907F906F905F904F900895C5
:10053000882341F08150682F70E090E080E050E027
:1005400040E08BCF0895862FB9010C94192D9C01A2
:10055000FC01E859FF4FE491E33061F140F4E130F0
:1005600011F1E23021F160E0822F0C94D92DE730B7
:10057000C1F1E83009F441C0E430A9F7809180006E
:100580008C7F82608093800090918100907E90614A
:10059000692B60938100509387004093860080917F
:1005A000800080621BC084B5806884BDDCCF84B5C8
:1005B0008062FBCF809180008C7F8260809380007E
:1005C00090918100907E9061692B6093810050939F
:1005D000870040938600809180008068809380002F
:1005E000C2CF8091B00080688093B0008091B1004C
:1005F000887F682B6093B100B6CF8091B000806295
:10060000F3CF90E080E008950F931F93009709F4D3
:1006100088C06115710509F484C000915C011091D6
:100620005D0120915E0130915F010E3F1F4F2F4F02
:100630003F4F09F068C0DB014D915D916D917C9158
:1006400040935C0150935D0160935E0170935F0184
:1006500040915C0150915D0160915E0170915F017C
:10066000DC011296ED91FC9180819181A281B38190
:100670008093E8029093E902A093EA02B093EB0220
:1006800084819581A681B7818093E4029093E502ED
:10069000A093E602B093E70280859185A285B38599
:1006A0008093E0029093E102A093E202B093E30210
:1006B00084859585A685B7858093DC029093DD02BD
:1006C000A093DE02B093DF021092D8021092D902FA
:1006D0001092DA021092DB02E5D787E79BE0909355
:1006E0006D0280936C0290936F0280936E02C9D664
:1006F000009731F421E030E03093ED022093EC02DA
:100700001F910F91089500915C0110915D0120915E
:100710005E0130915F01FB010083118322833383EB
:1007200097CF8FEF9FEFECCF8F929F92AF92BF92B8
:10073000CF92DF92EF92FF921F93CF93DF934B0103
:100740005C011091EF0282E090E09093ED028093C3
:10075000EC0281149104A104B10441F48091EF02F0
:10076000811104C08091EE02C1E08111C0E0C12C72
:10077000D12C76018091EF02811106C08091EE02AA
:10078000811102C0CC23D9F083E090E09093ED0278
:100790008093EC02CC2379F1CCE9DFEF111102C098
:1007A0000E94DB0ECE01DF91CF911F91FF90EF9061
:1007B000DF90CF90BF90AF909F908F9008956AE0A8
:1007C00070E080E090E00E94A82C80E1C80E87E2F3
:1007D000D81EE11CF11C8FEF88169806A806B806F3
:1007E00031F0C1E08C149D04AE04BF0408F0C0E0F9
:1007F00080E07BD6BFCFD0E0C0E0D0CFCF92DF92F9
:10080000EF92FF920F931F93CF93DF938F3F91054A
:1008100011F008F050C02091EC023091ED0223302D
:10082000310539F02091EC023091ED022130310593
:1008300031F424E030E03093ED022093EC026A01C1
:100840007B01EC0182309105A0F011E0AE01C701FF
:10085000B60116D6AB01BC01CE011123F9F0DF9130
:10086000CF911F910F91FF90EF90DF90CF900C945C
:1008700000118C01000F111F04591D4FD8018D91DB
:100880009C91892B11F30E940A110297F1F6D8016D
:10089000ED91FC91CE010995182FD8CF0E9422111D
:1008A00090E080E0DF91CF911F910F91FF90EF904A
:1008B000DF90CF9008958FEF9FEFF4CF80E015C6C3
:1008C000CF93DF9386E090E09093ED028093EC026B
:1008D00065D6EC01ECE6F2E084E0DF011D928A953A
:1008E000E9F70E94730E1092ED021092EC02CE0115
:1008F000DF91CF9108958091EE0208958091D70203
:10090000089560935C0170935D0180935E01909304
:100910005F0190E080E008952F923F924F925F92A6
:100920006F927F928F929F92AF92BF92CF92DF92FF
:10093000EF92FF920F931F93CF93DF9300D000D0DD
:10094000CDB7DEB78091180190911901A0911A01DD
:10095000B0911B0180939C0590939D05A0939E05EB
:10096000B0939F058091B60581111092B605BE0126
:100970006F5F7F4F8091B705F9DCC090A005D090E4
:10098000A105E090A205F090A30569817A818B8191
:100990009C810E94122A4B015C016091D8057091E4
:1009A000D9058091DA059091DB050E94122A9B01FE
:1009B000AC01C501B4010E940E292091280130919B
:1009C000290140912A0150912B010E94672BA70118
:1009D00096010E940E294B015C0120912401309167
:1009E00025014091260150912701609120017091CD
:1009F000210180912201909123010E9477299B017E
:100A0000AC01C501B4010E94672BA70196010E94A9
:100A10000F299B01AC012093A0053093A1054093C1
:100A2000A2055093A30560919C0570919D0580914E
:100A30009E0590919F056093A4057093A5058093F2
:100A4000A6059093A7052093A8053093A905409388
:100A5000AA055093AB050E940E295B016C01E09042
:100A60003401F090350100913601109137019B015E
:100A7000AC01B701C8010E94732987FD12C0E09044
:100A80001401F090150100911601109117019501C4
:100A9000A601B701C8010E94632B181614F0750156
:100AA0008601209138013091390140913A015091ED
:100AB0003B01B701C8010E94672B4B015C012091EB
:100AC0004001309141014091420150914301B701F1
:100AD000C8010E94672B2B013C016091DC057091DD
:100AE000DD058091DE059091DF050E94122A9B01B1
:100AF000AC01C301B2010E940F290E944D2A2B01B3
:100B00003C01BCD3811112C1C301B20172D3811166
:100B10000DC120E030E040E85FE4C301B2010E9473
:100B2000672A2B013C0120E030E0A9010E947329D3
:100B300087FFFFC0C301B20190580E94E42990953D
:100B40008095709561957F4F8F4F9F4F6093DC0527
:100B50007093DD058093DE059093DF0520914801B9
:100B60003091490140914A0150914B01B701C801B0
:100B70000E94672B0E944D2A6B017C017FD381115B
:100B8000DDC0C701B60135D38111D8C020E030E007
:100B900040E85FE4C701B6010E94672A6B017C014F
:100BA00020E030E0A9010E94732987FFCAC0C70175
:100BB000B60190580E94E4299095809570956195B2
:100BC0007F4F8F4F9F4F0E94122A2091D005309166
:100BD000D1054091D2055091D3050E940E291B01E9
:100BE0002C01CB01D2018093D0059093D105A09325
:100BF000D205B093D3056090300170903101C09060
:100C00003201D09033019401A501B301C6010E94C5
:100C1000732987FD12C06090100170901101C0907F
:100C20001201D09013019401A501B301C6010E94E5
:100C3000632B181614F0340165016091DC05709186
:100C4000DD058091DE059091DF050E94122A7B016F
:100C50008C0180903C0190903D01A0903E01B090AD
:100C60003F019401A5010E94632B181694F0809017
:100C70000C0190900D01A0900E01B0900F01940115
:100C8000A501B701C8010E94732987FD02C0470171
:100C90005801E0904401F090450100914601109107
:100CA00047019701A801B101C2010E94632B1816E8
:100CB00094F0E0900801F090090100910A01109170
:100CC0000B019701A801B101C2010E94732987FDA0
:100CD00002C0710182019401A501B301C6010E9405
:100CE0000F299701A8010E940F296B017C01C09276
:100CF000AC05D092AD05E092AE05F092AF058090C4
:100D00002C0190902D01A0902E01B0902F01A501F3
:100D100094010E94632B1816CCF48092AC0590923B
:100D2000AD05A092AE05B092AF0520C0412C512C6C
:100D30003201C301B2010E94E42908CFC12CD12C99
:100D40007601C701B6010E94E4293DCF80900401DD
:100D500090900501A0900601B0900701A5019401B3
:100D6000C701B6010E94732987FDD7CF20910001EA
:100D70003091010140910201509103016091AC0555
:100D80007091AD058091AE059091AF050E94632BE7
:100D9000609158011091590187FF04C060915A0178
:100DA00010915B0189E00CDB612F84E009DB65E0D9
:100DB00070E080E090E02DDB9093CF058093CE052E
:100DC0006091AC057091AD058091AE059091AF0535
:100DD0009F770E944D2A6B017C0150D2882309F431
:100DE0005EC060E070E0CB010E94E42970E090E01A
:100DF00080E00E94102AAB01BC018091CE05909149
:100E0000CF05E5DA89819A81AB81BC818093D805D1
:100E10009093D905A093DA05B093DB056091AE02FB
:100E20007091AF028091B0029091B1026F5F7F4FDD
:100E30008F4F9F4F6093AE027093AF028093B002CA
:100E40009093B1020E94102A9B01AC016091B20202
:100E50007091B3028091B4029091B5020E94672B09
:100E60006093AA027093AB028093AC029093AD02A0
:100E70000F900F900F900F90DF91CF911F910F91D6
:100E8000FF90EF90DF90CF90BF90AF909F908F90AA
:100E90007F906F905F904F903F902F900895C70183
:100EA000B601A7D181119DCF20E030E040E853E4A6
:100EB000C701B6010E94672A97CF8F929F92AF9287
:100EC000BF92DF92EF92FF920F931F93CF93DF9326
:100ED00084E090E057D1E4E9F2E080E090E0A0E81F
:100EE000BFEB82A393A3A4A3B5A38AE097EDA3E2EB
:100EF000BCE3868F978FA0A3B1A384EA92EFACE204
:100F0000BCEC84839583A683B78386E294E6AFE244
:100F1000B5E880879187A287B38784E895E2ADE83A
:100F2000B0E984879587A687B7878EEF90E9AAE214
:100F3000BEEE808B918BA28BB38BA8E8B2E0B3831B
:100F4000A283E0E7F2E01196FC93EE9389E891E04A
:100F5000918380839383828395838483978386831D
:100F600091878087938782879587848797878687ED
:100F7000918B808B938B828B958B848B978B868BBD
:100F800088EA92E015969C938E93149788E992E0F4
:100F900013969C938E9312974FEF5FEFBA011896BA
:100FA0004D935D936D937C931B9780911C01909161
:100FB0001D01A0911E01B0911F018093A005909387
:100FC000A105A093A205B093A305C0EBD5E0809145
:100FD000500190915101A0915201B091530188A705
:100FE00099A7AAA7BBA78091540190915501A09100
:100FF0005601B09157018CA79DA7AEA7BFA78091BE
:101000004C0190914D01A0914E01B0914F0188A3E8
:1010100099A3AAA3BBA31F821882812C912C5401EF
:10102000839489829A82AB82BC8247EB55E063E06D
:1010300082E0CDD8DD24D394DD821E828F81A8D9B1
:10104000188A898A9A8AAB8ABC8A61E089E0B0D919
:10105000DD8A188689869A86AB86BC8661E084E044
:10106000A7D9DD86188E898E9A8EAB8EBC8EE12C28
:10107000F12C8701A801970165E070E080E090E025
:101080000CDA9F8F8E8FDD8EDF91CF911F910F91A4
:10109000FF90EF90DF90BF90AF909F908F9008955A
:1010A0008091B005811113C081E08093B0058091DB
:1010B000B1059091B205A091B305B091B405019727
:1010C000A105B10521F48091B50581116ED98091FA
:1010D000C005811103C081E08093C0058091B805EF
:1010E000811103C081E08093B8058091C80581110A
:1010F0002AC081E08093C8058091C9059091CA05F6
:10110000A091CB05B091CC050197A105B105D9F40B
:101110008091CD058823B9F065E070E080E090E033
:1011200078D99093CF058093CE0540E050E0BA0186
:101130004ED965E070E080E090E06BD99093CF05E8
:101140008093CE05F5C9089560E070E080E89FE7E0
:10115000089560E070E080E89FE7089560E070E047
:1011600080E89FEF089560E070E080E89FEF0895C9
:1011700060E070E080EC9FEF089560E070E080EC4C
:101180009FEF0895F5DF6093EC057093ED05809374
:10119000EE059093EF05F1DF6093E0057093E105B4
:1011A0008093E2059093E305CFDF6093E8057093A9
:1011B000E9058093EA059093EB05CBDF6093E405A6
:1011C0007093E5058093E6059093E705C7DF60938C
:1011D000F0057093F1058093F2059093F305C3DF5A
:1011E0006093F4057093F5058093F6059093F705E9
:1011F0000895CF92DF92EF92FF92CF936B017C0123
:10120000AC019B016091E8057091E9058091EA05C8
:101210009091EB050E947329C1E0882371F0A7012A
:1012200096016091F0057091F1058091F205909121
:10123000F3050E9473298111C0E08C2FCF91FF909C
:10124000EF90DF90CF9008950F931F938B019C0137
:101250000027112720783F770115110520483F47C7
:1012600049F4AB01BC016F77772781E0452B462B12
:10127000472B09F480E01F910F910895E5CF4F921D
:101280005F926F927F928F929F92AF92BF92CF9216
:10129000DF92EF92FF920F931F93F8944090C70252
:1012A0005090C8026090C9027090CA02C090BB0200
:1012B000D090BC02E090BD02F090BE02452B09F038
:1012C000A4C09B01AC01241935094609570929011D
:1012D0003A010091C3021091C4022091C5023091DD
:1012E000C60248015901840C951CA61CB71C801627
:1012F0009106A206B306A0F40091BF021091C002AD
:101300002091C1023091C2020F5F1F4F2F4F3F4FFC
:101310000093BF021093C0022093C1023093C20217
:101320008092C3029092C402A092C502B092C602FB
:101330000091BF021091C0022091C1023091C202FF
:101340008092CB029092CC02A092CD02B092CE02BB
:101350000093CF021093D0022093D1023093D20297
:101360006093C7027093C8028093C9029093CA0227
:10137000A0E1B7E2A30192010E941E306C0D7D1D19
:101380008E1D9F1D6093BB027093BC028093BD02B3
:101390009093BE0200915C0110915D0120915E016D
:1013A00030915F010F3F1F4F2F4F3F4FF1F00091E2
:1013B0005C0110915D0120915E0130915F010E3F53
:1013C0001F4F2F4F3F4F89F0C0905C01D0905D01BF
:1013D000E0905E01F0905F0121E08C149D04AE046A
:1013E000BF0408F420E02093D70278941F910F9156
:1013F000FF90EF90DF90CF90BF90AF909F908F9035
:101400007F906F905F904F9008954B015C0184181E
:101410009508A608B708A3019201261B370B480BB5
:10142000590B6415750586059705D0F0821693064D
:10143000A406B50640F420E030E0A901811491042F
:10144000A104B10491F4A0E1B7E20E941E30A7010B
:101450009601261B370B480B590BCA01B901C5CFA2
:1014600082169306A406B50670F7A0E1B7E2A501BF
:1014700094010E941E306C0D7D1D8E1D9F1DB5CFE9
:10148000FECECF93DF9300D000D0CDB7DEB71C8265
:101490001B821A8219821092D3021092D4021092E7
:1014A000D5021092D602BE016F5F7F4FCE01039628
:1014B0000E94322769817A818B819C810E94292038
:1014C000009761F4BE016F5F7F4FCE0103960E94CB
:1014D0003E2769817A818B819C8128D50F900F905E
:1014E0000F900F90DF91CF910895FF920F931F936C
:1014F000CF93DF93082F60E070E0CB010E94A82C0F
:10150000FF24F3940E94141FEC01892B89F010E052
:10151000CE3F8FEFD80769F0002361F160E070E003
:10152000CB010E94A82C81E090E0892B59F322C0C6
:1015300011E01FD5EC01892B21F0CE3F8FEFD807AA
:1015400059F711111EC011E0229609F410E00E9413
:10155000C51EEC01892B21F0CE3F8FEFD807E1F6B5
:10156000111111C011E0CE3F8FEFD80709F410E040
:1015700001110BC0CE01DF91CF911F910F91FF9010
:10158000089511E0E4CF11E0F3CF60E070E0CB010B
:101590000E94A82C1F25812F90E0C7CFCF93DF9307
:1015A0008091D702882321F060E070E0CB0148D61B
:1015B00031D6D0E0C0E0892B71F06AE070E080E0C5
:1015C00090E00E94A82C81E090DF24D62196C03DB7
:1015D00027E0D20781F723D60E947D201092EF02E8
:1015E0001092EE021092E8021092E9021092EA02C2
:1015F0001092EB021092E4021092E5021092E602C1
:101600001092E7021092E0021092E1021092E202C0
:101610001092E3021092DC021092DD021092DE02C0
:101620001092DF021092D8021092D9021092DA02C0
:101630001092DB024EEF5FEF6FEF7FEF40935C01A4
:1016400050935D0160935E0170935F011092D70229
:10165000EBECF2E028E0DF011D922A95E9F7109209
:10166000C7021092C8021092C9021092CA021092C8
:10167000C3021092C4021092C5021092C6021092C8
:10168000BF021092C0021092C1021092C2021092C8
:10169000BB021092BC021092BD021092BE02DF91FA
:1016A000CF9108951092FB021092FC021092FD025D
:1016B0001092FE021092FA028091030390910403AB
:1016C0009093F9028093F8021092F7021092F602BA
:1016D0001092F2021092F3021092F4021092F502AC
:1016E000109200031092FF0290E080E00895CF92E4
:1016F000DF92EF92FF920F931F93CF938C01892B70
:1017000009F055C020910303309104038091F80241
:101710009091F90240910303509104035093F90210
:101720004093F8022817390781F01092F7021092BF
:10173000F6021092F2021092F3021092F40210924A
:10174000F502109200031092FF0280910303909122
:101750000403019761F58091FF0290910003892BAA
:1017600021F480916001811112C08091FF0290915B
:1017700000030197E1F48091F2029091F302A091AD
:10178000F402B091F5020197A105B10581F4109220
:10179000F2021092F3021092F4021092F5021092EB
:1017A000600182E090E0909300038093FF028091BB
:1017B000030390910403019709F01CC18091190360
:1017C00090911A038017910709F014C180911503B5
:1017D00090911603A0911703B0911803009709F494
:1017E00009C12091140321110DC04091150350919E
:1017F00016036091170370911803452B462B472B56
:1018000009F4F8C02091FF02309100032230310525
:1018100009F0F0C02091F6022111ECC0FC01C0805B
:10182000D180E280F3808091FA02882309F4D3C04A
:101830008091060390910703892B09F4FDC0209144
:1018400006033091070381E02230310509F080E082
:101850002091060330910703C1E02130310549F0A2
:101860002091060330910703C1E02230310509F0D1
:10187000C0E0882309F456C0209110033091110371
:101880004091120350911303C701B6010E94632BCC
:1018900087FD14C020911003309111034091120371
:1018A000509113036091FB027091FC028091FD0244
:1018B0009091FE020E94732987FD22C0209110039F
:1018C000309111034091120350911303C701B601E7
:1018D0000E94632B181634F52091100330911103E8
:1018E00040911203509113036091FB027091FC022E
:1018F0008091FD029091FE020E947329811112C015
:101900008091080390910903A0910A03B0910B0301
:10191000892B8A2B8B2B19F481E08093F70281E0CD
:101920008093F602CC2309F456C020911003309125
:1019300011034091120350911303C701B6010E9495
:10194000732987FF14C02091100330911103409137
:101950001203509113036091FB027091FC0280917D
:10196000FD029091FE020E94632B87FF22C020910E
:101970001003309111034091120350911303C701DA
:10198000B6010E947329811126C020911003309165
:10199000110340911203509113036091FB02709167
:1019A000FC028091FD029091FE020E94632B1816AA
:1019B00094F48091080390910903A0910A03B091D7
:1019C0000B03892B8A2B8B2B19F481E08093F70270
:1019D00081E08093F60281E09091F602911180E01F
:1019E0008093FA02C092FB02D092FC02E092FD02C8
:1019F000F092FE02012B09F067C18091FF029091E5
:101A00000003892BD9F4109205031092F6028091FD
:101A10006001882379F082E090E090930003809346
:101A2000FF0210926001209103033091040381E0D2
:101A3000232BE9F080E01BC081E00ACF1092600107
:101A400080910503882349F01092F7021092000359
:101A50001092FF0210920503EDCF80910303909145
:101A60000403892BE1F08091F6021092F602209196
:101A7000FF02309100032230310509F45EC088F482
:101A80002115310509F448C02130310509F4F3C0AE
:101A90001092F7021092F6021092050338C081E00E
:101AA000E6CF2330310509F4B1C02430310581F788
:101AB0004091F2025091F3026091F4027091F502AC
:101AC000411551056105710561F0415051096109E8
:101AD00071094093F2025093F3026093F402709301
:101AE000F5024091F2025091F3026091F40270917C
:101AF000F502452B462B472BD9F420910103309159
:101B000002032130310509F046C01092F70210920D
:101B100000031092FF020CC080916001882341F005
:101B200082E090E0909300038093FF0210926001A6
:101B30001092F0028091F702CEC08823C9F3809101
:101B4000080390910903A0910A03B0910B031816A2
:101B500019061A061B060CF07DC0809103039091B4
:101B60000403019709F076C080910803909109035E
:101B7000A0910A03B0910B038093F2029093F302B9
:101B8000A093F402B093F50283E090E090930003F9
:101B90008093FF02CDCF40910C0350910D036091D3
:101BA0000E0370910F03452B462B472BA9F0109283
:101BB000F70280910C0390910D03A0910E03B09158
:101BC0000F038093F2029093F302A093F402B09378
:101BD000F50281E090E0DACF882399F080916101ED
:101BE00090916201A0916301B09164018093F2022F
:101BF0009093F302A093F402B093F50284E090E096
:101C0000C5CF1092F70282E090E0C0CF8091F2023F
:101C10009091F302A091F402B091F5020097A10512
:101C2000B10559F00197A109B1098093F20290938F
:101C3000F302A093F402B093F5028091F202909126
:101C4000F302A091F402B091F502892B8A2B8B2B21
:101C500009F06ECF8091610190916201A0916301C2
:101C6000B0916401892B8A2B8B2B09F44ECF81E034
:101C70008093F702B3CF4091F2025091F30260914A
:101C8000F4027091F502411551056105710561F08D
:101C900041505109610971094093F2025093F302D6
:101CA0006093F4027093F5024091F2025091F302B6
:101CB0006091F4027091F502452B462B472B09F0F9
:101CC00037CF8111C7CF9FCF8091F002882309F4CD
:101CD00031CF8091F102CF911F910F91FF90EF9042
:101CE000DF90CF9008951092FB021092FC021092A8
:101CF000FD021092FE021092FA021092000310925E
:101D0000FF021092F9021092F80210921A03109238
:101D100019031092F7021092F6021092F20210923A
:101D2000F3021092F4021092F5021092F102109256
:101D3000F0021092150310921603109217031092DE
:101D400018031092140310921003109211031092B2
:101D500012031092130388EE93E0A0E0B0E08093AA
:101D6000610190936201A0936301B09364011092AA
:101D70000C0310920D0310920E0310920F03109299
:101D800008031092090310920A0310920B03109299
:101D900007031092060381E080936001109205030F
:101DA0001092040310920303109202031092010395
:101DB00090E080E008958091030390910403892BC3
:101DC000E1F480916001882351F080910503811135
:101DD00006C081E08093F1028093F0020895809123
:101DE0000503882341F080916001811104C01092A5
:101DF000F10281E0F1CF1092F002089582E090E0CC
:101E0000FA01918380838FEF9FEF0895CF93DF9343
:101E1000EA01009711F00E949A211982188290E03D
:101E200080E0DF91CF910895DB01009719F48FEFE7
:101E30008C9308952EEF2C9340968031910508F0F5
:101E400036C0FC01EA5DF04F0C941830550F530F6B
:101E5000510F4F0F4D0F4B0F470F490F450F430FBA
:101E6000410F3E0F3A0F360F3C0F570F80E311968C
:101E70008C93089589E2FBCF82E2F9CF11961C92F0
:101E8000089583E2F4CF81E2F2CF81E1F0CF87E2DF
:101E9000EECF8AE2ECCF80E1EACF84E2E8CF88E2BD
:101EA000E6CF86E2E4CF81E3E2CF83E3E0CF80E2D6
:101EB000DECF809127039091280308959093280303
:101EC0008093270308958091260308959091260317
:101ED000892B809326030895982F9095809126034F
:101EE0008923809326030895809125030895809186
:101EF00023039091240308956115710559F0FB01A6
:101F000030E020E070E060E02417350719F061153B
:101F1000710511F0CB010895A081B181A817B9070F
:101F200009F4BF012F5F3F4F3696EECF8091290312
:101F300081111CC062D268D290931C0380931B0352
:101F40000E949F190E94B1199093200380931F0350
:101F50000E942F1E0E94361E90931E0380931D0325
:101F600081E08093290390E080E0089584EF9FEF63
:101F700008958F929F92AF92BF92CF92DF92EF928D
:101F8000FF920F931F93CF93DF93CDB7DEB72A97BE
:101F90000FB6F894DEBF0FBECDBF1A86198618861D
:101FA0001F821E821D821C821B821A8219828091CE
:101FB000290307EF1FEF882309F49CC08E010D5FF2
:101FC0001F4F9E012B5F3F4FAE01495F5F4FBE0128
:101FD000675F7F4F90E080E00E94AF1F8C01009709
:101FE00021F00596029708F0DBC029853A85211576
:101FF000310509F402C1ED80FE804B815C81B7019F
:10200000640F751F8F8198858617970708F4F5C0B0
:10201000E20EF31ED7019C91903C09F07FC0423044
:10202000510508F47BC011968C9140912703509183
:102030002803452B09F49CC0913F08F071C02CE1A6
:10204000290F2D3008F48BC02DE2290F203108F420
:1020500089C0903C21F48150823008F483C088E329
:10206000890F8B3008F481C094E1C92E9FE0D92EEE
:10207000EEEFFEE06D817E81AE014F5F5F4F89859F
:102080009A8509955C01C114D104A1F189809A80D7
:102090008114910479F18B819C818815990508F44C
:1020A00087C010E000E04B815C8170E060E0C70118
:1020B0000E94403001151105E9F449815A81698572
:1020C0007A858D819E81680F791FC501F60109957A
:1020D000E980FA800D811E812F81388549855A85D6
:1020E0006FEF7FEF81E090E00E944B1F8C01892B06
:1020F00009F056C0C8012A960FB6F894DEBF0FBE8D
:10210000CDBFDF91CF911F910F91FF90EF90DF90A6
:10211000CF90BF90AF909F908F90089580E085CF33
:1021200030E020E0220F331FF901E55EFC4F019003
:10213000F081E02D309709F497CF892F90E0099531
:10214000009709F491CFDC011296ED91FC91139761
:102150001496CD90DC90309709F08CCF1FC021E011
:1021600030E0E0CF22E030E0DDCF23E030E0DACF36
:10217000D12CC12CE6E0FFE09F3F09F07BCFE0913E
:102180001B03F0911C03309721F4C90104EF1FEFEA
:102190000CC08FEF90E009950097A9F604EF1FEFB0
:1021A00089859A85009709F4A5CF0E949A21A2CF2C
:1021B0000E9478208C0189859A850E949A2170E07E
:1021C00060E0C4010E94112098878F830E94481FFD
:1021D0009E838D836F8178856115710559F0C801E3
:1021E0000E9426239A87898706EF1FEF892B09F023
:1021F00058CF59CF08EF1FEF56CF08EF1FEFD0CFC2
:1022000020912903222319F020E00C94B61987EFBE
:102210009FEF0895809127039091280308950E94CD
:102220003B1E0E94951DF5D0EBE1F3E088E0DF0155
:102230001D928A95E9F71092290390E080E00895B5
:102240000C94F21B21E040E050E0BA010C94B61966
:1022500086E090E0FA019183808390E080E0089529
:1022600047E050E06CE871E047CEDF92EF92FF92DA
:102270000F931F93CF93DF938A01EC01C60FD71FF3
:10228000E0902D03F0902E03D9800E946020D81694
:10229000190678F082E090E0F801918380838EEF58
:1022A0009FEFDF91CF911F910F91FF90EF90DF9003
:1022B0000895EF2841F482E090E0F8019183808353
:1022C00084EF9FEFEECF898180932C0390E00196FD
:1022D000F8019183808390E080E0E3CFCF93DF9398
:1022E000EA010E94A31C882321F00E946D200E9415
:1022F000A41C82E090E0998388838BEF9FEFDF91AD
:10230000CF910895CF93DF93EB0186E0FB0111920B
:102310008A95E9F78FEF8883D6DD8983E5DD8A83A7
:10232000E6DD9D838C83DF91CF910895CF93DF937A
:10233000EA010E94A61C811109C082E090E0998305
:10234000888385EF9FEFDF91CF91089590E080E043
:10235000B5DD81E090E09983888390E080E0F3CF61
:102360000F931F93CF93DF93EA018C01060F171F82
:102370000E94A61C81110BC082E090E099838883A3
:1023800085EF9FEFDF91CF911F910F910895F80195
:102390008181823038F082E090E0998388838EEFEB
:1023A0009FEFF0CF81E090E089DD88E090E09983B5
:1023B000888390E080E0E6CFCF93DF930097D1F45D
:1023C000EB01FB01329686E0DF011D928A95E9F769
:1023D0008FEF888385E089831A820E9460208B8337
:1023E0000E945F209D838C8381E08E838F83DF91A9
:1023F000CF910895DF91CF9117CD80E391E1909334
:102400002B0380932A03089580912A0390912B0334
:10241000089510922B0310922A03089580912D03A2
:1024200090912E030895411105C061157105810534
:10243000910561F060932D0370932E0380932F0319
:10244000909330034093310381E0089580E0089534
:10245000FF920F931F93CF93DF938A01EC01C60F76
:10246000D71FF9800E946020F816190668F082E0F4
:1024700090E0F801918380838EEF9FEFDF91CF9101
:102480001F910F91FF9008956C817D818E819F81B6
:102490004B81C9DF811108C082E090E0F80191838F
:1024A000808384EF9FEFEACF898180932C0390E0B3
:1024B0000196F8019183808390E080E0DFCFCF9395
:1024C000DF93EA01FC01E60FF71F648175818681C5
:1024D00097814381A8DF811109C082E090E0998350
:1024E000888384EF9FEFDF91CF91089581E090E0A2
:1024F0009983888390E080E0F6CFEDE2F3E04081BD
:10250000518162817381480F511D611D711D40838E
:102510005183628373830895CF93C0912C034C2F12
:1025200050E060912D0370912E0301960E94373088
:102530008C2FE3DF10922C03CF910895009799F42C
:1025400080912D0390912E032FEFFB012083892B87
:1025500059F020912C0330E02F5F3F4F24173507AF
:1025600019F4CB01D9CF60CC0895009799F48091EC
:102570002D0390912E032FEFFB012083892B59F01F
:1025800020912C0330E02F5F3F4F2417350719F4BB
:10259000CB01C2CF49CC089523E1AC01249FC001F7
:1025A000259F900D1124E0913603F0913703E80F39
:1025B000F91F238134812250310981E02230310515
:1025C00008F080E008950F931F93CF93DF9300915D
:1025D000380310913903D0E0C0E080E00C171D07EC
:1025E00049F491E0811190E0892FDF91CF911F9103
:1025F0000F9108958111F5CFCE01CEDF2196EECF58
:10260000A0913603B0913703109729F12091380338
:102610003091390382179307F0F453E1589F9001EA
:10262000599F300D1124A20FB31FED91FC9111970A
:10263000309789F012968C91681768F48DE0689F46
:10264000E00DF11D112480819181892B21F081E021
:102650009281491708F080E008959C0143E1429F70
:10266000C001439F900D1124E0913603F091370390
:10267000E80FF91F8385823091F481E090E0658155
:10268000768140916501509166016417750711F4D8
:1026900090E080E0892B19F081E0232B09F080E0A5
:1026A0000895FC01A081B1818DE0689FA00DB11D4E
:1026B000112413964D915C9185859685489F9001D4
:1026C000499F300D589F300D1124C90101966111A9
:1026D00003C0478144FD04960895EF92FF920F9343
:1026E0001F93CF93DF93EA01FC01E60FF71F0281EE
:1026F0001381E480F5804F2D6E2DC80181DF81119B
:102700000DC082E090E0998388838EEF9FEFDF9188
:10271000CF911F910F91FF90EF900895C8013CDF7A
:10272000882339F082E090E09983888388EF9FEFD7
:10273000EECF10936C0100936B01E0926D01F0926B
:102740006E0181E090E09983888390E080E0DFCFA4
:10275000CF92DF92EF92FF920F931F93CF93DF936D
:102760007A01EC01C60FD71FC0906B01D0906C01AD
:1027700000916D0110916E01412F602FC60140DF65
:10278000811110C082E090E0F701918380838AEF8D
:102790009FEFDF91CF911F910F91FF90EF90DF900E
:1027A000CF900895C601F8DE882341F082E090E0E2
:1027B000F7019183808388EF9FEFEBCF4C815D81A0
:1027C0006E817F819A8189818F3F41F082E090E024
:1027D000F701918380838EEF9FEFDBCFE3E1EC9DE8
:1027E0009001ED9D300D1124E0913603F0913703F7
:1027F000E20FF31F0190F081E02D2DE0029FE00D2C
:10280000F11D11240190F081E02D27E0129FE00DD1
:10281000F11D1124808391838B81828343835483B0
:10282000658376831F5F10936E0181E090E0F7016E
:102830009183808390E080E0ACCFEF92FF920F9382
:102840001F93CF93DF937A018C01060F171FC0915E
:102850003603D0913703209781F021E030E0F80172
:1028600082819381409138035091390384179507F1
:1028700010F030E020E0232B71F482E090E0F701CB
:10288000918380838EEF9FEFDF91CF911F910F9106
:10289000FF90EF90089543E1489F9001499F300DCC
:1028A0001124C20FD31F78DE882341F082E090E02C
:1028B000F7019183808388EF9FEFE6CFF8012481B1
:1028C000358120383105C8F687818111D6CF418105
:1028D000842F90E08F7E009741F082E090E0F70136
:1028E0009183808386EF9FEFCFCF4F833E832D83ED
:1028F000268128871986223010F421E0288721E0DC
:1029000030E0F70131832083BFCF88E090E0FA0107
:102910009183808390E080E00895FB018FEF8083B6
:1029200081E181838FEF9FEF9383828380E890E042
:1029300095838483168217820895FB018FEF80832D
:1029400091E0918382839383848384E3858381E010
:1029500090E097838683089582E090E0FA01918366
:10296000808380EF9FEF0895DF92EF92FF920F93A5
:102970001F93CF93DF93EA01FC01E60FF71F8181DC
:10298000813071F082E090E0998388838FEF9FEF30
:10299000DF91CF911F910F91FF90EF90DF900895FD
:1029A00082819381D4802581E680F780009136036F
:1029B000109137030115110539F482E090E09983F5
:1029C00088838CEF9FEFE4CF409138035091390317
:1029D0008417950738F082E090E0998388838EEF22
:1029E0009FEFD6CF892B39F082E090E099838883DE
:1029F00086EF9FEFCDCF8D2D8D7FB1F72130A1F7E1
:102A000081E0D11006C091E0E916F10431F080E0D8
:102A100004C0E2E0EE16F104D0F3882329F390E03D
:102A200080E0BADD882339F082E090E099838883E2
:102A300088EF9FEFADCFF801D38681E08487F686DB
:102A4000E586108A178681E090E09983888390E07C
:102A500080E09ECF4DE050E066EB71E04DCA8F9272
:102A60009F92BF92CF92DF92EF92FF920F931F93AC
:102A7000CF93DF93EA01FC01E60FF71F8281938178
:102A80000481B580E0913603F0913703309791F4DB
:102A900082E090E0998388838CEF9FEFDF91CF9164
:102AA0001F910F91FF90EF90DF90CF90BF909F907C
:102AB0008F9008952091380330913903821793073E
:102AC00038F082E090E0998388838EEF9FEFE6CF25
:102AD00023E1289F6001299FD00C1124EC0DFD1DDE
:102AE000E080F180E114F10499F28281081748F73F
:102AF0008DE0089F80011124E00EF11EF701808116
:102B00009181892B29F6BB20E1F2F7E0BF9E4001BD
:102B10001124C4010E946121F70191838083E09117
:102B20003603F0913703EC0DFD1D0190F081E02D8F
:102B3000E00FF11F80819181009739F482E090E0ED
:102B4000998388838DEF9FEFA9CFA40170E060E0A7
:102B50000E9440308091360390913703C80ED91EF1
:102B6000F60180819181080F191FF801B28281E07E
:102B700090E09983888390E080E090CFAF92BF92FD
:102B8000CF92DF92FF920F931F93CF93DF93EA01CF
:102B9000FC01E60FF71F82819381F48000913603D8
:102BA000109137030115110581F482E090E09983BB
:102BB00088838CEF9FEFDF91CF911F910F91FF9052
:102BC000DF90CF90BF90AF9008952091380330915F
:102BD00039038217930738F082E090E09983888365
:102BE0008EEF9FEFE8CF2FEF2F0D2C3FA8F723E1BB
:102BF000289F6001299FD00C11240C0D1D1DF80188
:102C000080819181892B89F6FDE0FF9E500111247E
:102C1000C5010E946121F80191838083E091360310
:102C2000F0913703EC0DFD1D80819181009739F4FF
:102C300082E090E0998388838DEF9FEFBCCFA50160
:102C400070E060E00E944030E0913603F09137037D
:102C5000EC0DFD1DF28281E090E09983888390E085
:102C600080E0A9CFCF92DF92EF92FF920F931F9354
:102C7000CF93DF93860F971FFC0102811381809110
:102C8000360390913703892B81F082E090E0FA01BE
:102C9000918380838CEF9FEFDF91CF911F910F91F4
:102CA000FF90EF90DF90CF900895C801B0E0A0E0D2
:102CB0000197A109B1098F3F9F4FA105B10540F0D0
:102CC00082E090E0FA01918380838EEF9FEFE4CF62
:102CD0007A0183E1809F6001819FD00C1124C6019D
:102CE0000E946121EC01009741F482E090E0F7013D
:102CF000918380838DEF9FEFCFCFA60170E060E0DE
:102D00000E944030D0933703C093360310933903A9
:102D10000093380390E080E02FEF3FEF41E061E067
:102D200070E08017910741F481E090E0F701918312
:102D3000808390E080E0B0CF3A8B298B1B864C8754
:102D40007E876D87188A1F8601966396EACFEF9279
:102D5000FF921F93CF93DF93EC0110E0F12CE12C55
:102D60006A811617A8F070E0660F771FAE014F5EFC
:102D70005F4FC7010E94C621009721F02FEF3FEF60
:102D80003A8B298BDF91CF911F91FF90EF9008959F
:102D9000612FCE0186DC61E070E00E941120E81610
:102DA000F90608F47C011F5FDBCFF894209134030F
:102DB0003091350381E02115310509F080E0232BA6
:102DC00009F0789408952F923F924F925F926F92FC
:102DD0007F928F929F92AF92BF92CF92DF92EF92AB
:102DE000FF920F931F93CF93DF933C01660E771EE4
:102DF000F301828193814C01B12CA12CC091360347
:102E0000D0913703209769F021E030E060913803DA
:102E1000709139038617970710F030E020E0232BDC
:102E2000D1F482E090E0FA01918380838EEF9FEFEE
:102E3000DF91CF911F910F91FF90EF90DF90CF9096
:102E4000BF90AF909F908F907F906F905F904F90CA
:102E50003F902F90089580926F0190927001A09200
:102E60007101B092720163E1689F9001699F300D1A
:102E70001124C20FD31FF3018181833040F082E01F
:102E800090E0FA019183808386EF9FEFD1CF2A01F2
:102E90002B813C81232BF1F4288139819F8191FF83
:102EA0002EC0232B09F46FC020913B039A81422F3F
:102EB000490F5527551FBA0141E050E061387105AF
:102EC00014F050E040E0452B09F45DC02A87920FD2
:102ED00090933B038150823008F481C066DF8823E1
:102EE00009F4D8C0F3018181813009F48DC008F460
:102EF0007BC0823009F4C6C090E080E0ADC0232BD7
:102F000009F441C020913A039A81E22FE90FFF278B
:102F1000FF1F41E050E0ED3FF10514F050E040E0CC
:102F2000452B89F12A87920F90933A03D3CFA08142
:102F3000B181A20FB31F11966C91060F111D01965E
:102F4000295F3F4F8417950794F38D859E85089FD1
:102F50001001099F300C189F300C1124C114D104AA
:102F6000D1F48F8184FF17C00E945F20F5E02F0EFF
:102F7000311C21E08215930508F420E0A701435F8E
:102F80005F4F21110EC082E090E0F20191838083B7
:102F900087EF9FEF4DCF0E945F202FEF221A320A5A
:102FA000E8CF88819981E80EF91EF7011483038325
:102FB000FFEFCF1ADF0A7A018A818C151D0409F010
:102FC0000CF48CCFE881F981EE0DFF1D428150E0B9
:102FD00030E020E010E000E090E080E0B3CFF12CA2
:102FE000E12CD12CC12CE8CF81E090E09C838B8335
:102FF000EADA882309F480CF81E090E00E945E0F36
:1030000080E40E946C0F78CF89899A89019661F0DB
:1030100083E090E09C838B8382E090E00E945E0FCF
:1030200080E40E94660F68CF8D819E8120916501AA
:103030003091660182179307D1F460916901709114
:103040006A01AE014F5E5F4F809167019091680108
:103050000E94E5220097E1F2789422E030E0F2014C
:1030600031832083892B99F08DEF9FEFE1CE892862
:103070008A288B2869F6892B59F6CE0168DE188AD2
:103080001F86E8CF82E090E09C838B8335CF90E071
:1030900080E0CECE82E090E0F2019183808385EFE4
:1030A0009FEFC6CE8F929F92AF92BF92CF92DF9248
:1030B000EF92FF920F931F93CF93DF93EA018C015E
:1030C000060F171FF8018181833098F082E090E0AD
:1030D0009983888386EF9FEFDF91CF911F910F91A6
:1030E000FF90EF90DF90CF90BF90AF909F908F9028
:1030F00008958091360390913703892B61F081E028
:1031000090E02091380330913903232B11F490E0A3
:1031100080E0892B39F482E090E0998388838EEFF8
:103120009FEFDACF42DE882309F4DFC0F801818106
:10313000813009F495C0E8F0823099F42091380389
:1031400030913903E0913603F091370390E080E04D
:1031500041E050E02817390709F0BDC034DA811189
:1031600017C0789481E090E09983888390E080E0B4
:10317000B3CF2091380330913903E0913603F091B9
:10318000370390E080E041E050E02817390741F430
:1031900081E090E00E945E0F80E40E946C0FE1CF1E
:1031A00063817481672B11F0548343830196739676
:1031B000ECCFE0913603F0913703E00FF11F23814C
:1031C000348122303105D9F4218932892F3F3F4F94
:1031D000B1F4258136814091650150916601241733
:1031E000350761F5AF014F5E5F4F609169017091E6
:1031F0006A0180916701909168010E94E522EFEFDA
:10320000CE1ADE0AEE0AFE0A0D5E1F4F4091380309
:103210005091390370E060E0C416D506E606F70663
:103220003CF5009731F27894892B09F49BCF82E02A
:1032300090E0998388838DEF9FEF4ECFC114D10426
:10324000E104F104E1F6232BD1F6CF0180DDE0911A
:103250003603F0913703E00FF11F108A1786CFCFA6
:1032600010E000E090E080E0C12CD12C7601CECFC0
:103270000097C9F610E000E0812C912C540183E006
:10328000E82EF12C1AC0E0913603F0913703E00FDD
:10329000F11F83819481029749F4F482E38282E0F2
:1032A00090E00E945E0F80E40E94660FFFEF8F1A8D
:1032B0009F0AAF0ABF0A0D5E1F4F8091380390919D
:1032C0003903B0E0A0E088169906AA06BB06DCF236
:1032D00090E080E0A8CF638174816230710511F4C1
:1032E000548343830196739635CF82E090E09983AF
:1032F000888385EF9FEFF0CE0097B9F48FEFFB0145
:10330000808320916F013091700143E1429FC001A1
:10331000439F900D1124E0913603F0913703E80F9D
:10332000F91F8285FB01818308950C94140F88E0B6
:1033300090E0FA019183808390E080E008951092FC
:10334000350310923403E6E3F3E086E0DF011D92DB
:103350008A95E9F78AE295E19093330380933203EB
:103360000895809132039091330308952F923F92F4
:103370004F925F926F927F928F929F92AF92BF9285
:10338000CF92DF92EF92FF920F931F93CF93DF9331
:10339000CDB7DEB72F970FB6F894DEBF0FBECDBF07
:1033A000F894E0913403F09135033196F0933503AE
:1033B000E0933403789440903603509037034114DF
:1033C000510409F40CC2E0913803F0913903EF2B5A
:1033D00009F405C22D8749875A876B877C879887B0
:1033E0008F831201B12CA12C10E000E080913803F2
:1033F00090913903A816B90618F40115110529F1A1
:10340000F89480913403909135030197909335039C
:10341000809334037894C8012F960FB6F894DEBFDA
:103420000FBECDBFDF91CF911F910F91FF90EF9015
:10343000DF90CF90BF90AF909F908F907F906F90D4
:103440005F904F903F902F9008957101E418F50818
:10345000D10117968C91179781FD54C013968D91C9
:103460009C911497039709F04DC015968D919C91EE
:10347000EF81F8858E179F0709F044C0B50190E0F1
:1034800080E07ED48A8320913603309137033D83D8
:103490002C833D85332309F44CC04C815D81452B41
:1034A00009F49AC18091380390913903A816B9069E
:1034B00008F092C1C501D1D88823E9F06C817D81E3
:1034C0006E0D7F1D7D836C83DB011F968D919C911A
:1034D000892B89F0D12CC12CF12CE12CAC81BD8140
:1034E00012968C9112978E151F0409F094F4509641
:1034F0001C921E921F972A81222321F0B50190E091
:1035000080E040D43FEFA31AB30A43E1240E311CFC
:103510006DCFAC81BD81ED91FC91EC0DFD1D8581E0
:10352000968108D7BFEFEB1AFB0AEDE0CE0ED11C57
:10353000D5CFEC81FD81309709F44EC180913803DD
:1035400090913903A816B90608F046C1EE0DFF1D8B
:10355000FF87EE87C50181D88B83882339F1AE853B
:10356000BF851F968D919C915097019621E01D96E5
:103570004D915C918417950709F020E02E83198204
:10358000712C10E000E0AE85BF8512968C91781604
:1035900008F45DC0EE85FF85878590890196658575
:1035A00076850E94E22F908B8787A5CFB1E0BE83FE
:1035B000E6CF992493946BC084D6F60196838583D5
:1035C00082C0D601ED90FC90B7E06B9EE00CF11C40
:1035D0001124F7016381748180818F3F61F121E0C3
:1035E00030E002C0220F331F8A95E2F7C901092E8D
:1035F000000CAA0BBB0BFB014081518162817381DE
:1036000084239523A623B72321E0892B8A2B8B2B98
:1036100009F420E0D4012C93D70111968C91F60186
:1036200023853485820F932F911D880E991E148651
:10363000138663949BC0418150E0C4010E943730DF
:10364000EBCF998206EF1FEFC5C01982C3C0F98185
:10365000F111A0CFEDE07E9E70011124AE85BF85F3
:10366000CD90DC90CE0CDF1C13D49D838C83BB816A
:10367000BB2309F49ECF81E0EE85FF852785308945
:10368000232B09F080E0982E882309F458C0672D79
:103690008E859F8506D8D60118969C938E93179792
:1036A00061E070E0BED4EE85FF85218932892F3F2D
:1036B000320709F481CFBC01C901C8D7D6011696DB
:1036C0009C938E931597D60115968D919C91169784
:1036D000009709F4B6CFEC81FD818E0F9F1F1A96DB
:1036E0009C938E931997AE85BF85ED91FC911197B0
:1036F000EE0EFF1EF70121853285148613861A9679
:103700008C91870DD9018D93711016C0EE85FF85C0
:10371000878184FF11C049855A856B857C85F901B5
:103720004183528363837483F70183859485049670
:10373000A80FB91F14861386F701B287A187D60197
:1037400015968D919C911697892B09F443C0EE85AF
:10375000FF8525813681809165019091660128174A
:10376000390779F019968D909C90612CD6011296AC
:103770008C911297681608F424CF1A969C928E9218
:103780001997BE81BB2309F460CF61E070E0F601B8
:103790008781908546D4D6011796ED90FC901897B6
:1037A00015964D915C91E1E0F0E0BA81BB2311F0F8
:1037B000F0E0E0E00C811D819C01B501882799278C
:1037C0008E1B9F0B68D38C01892B21F0F60185811C
:1037D0009681B0D57394D7CE0FEF1FEF8CCE10E04B
:1037E00000E00ECE2F923F924F925F926F927F92A7
:1037F0008F929F92AF92BF92CF92DF92EF92FF9201
:103800000F931F93CF93DF938091360390913703EB
:1038100010E000E0892BA9F0C8DA0AEF1FEF882337
:1038200081F02090380330903903C0913603D09155
:103830003703D12CC12C10E000E02C143D04A9F476
:103840007894C801DF91CF911F910F91FF90EF9075
:10385000DF90CF90BF90AF909F908F907F906F90B0
:103860005F904F903F902F900895C6010E942D13B6
:10387000882309F18B819C810397E9F48F859889CE
:10388000892BC9F0B60190E080E07AD221E030E0E7
:10389000882311F030E020E044245524421A530AD2
:1038A000B12CA12C912C812C8A818815190409F046
:1038B00038F4188A1F864FEFC41AD40A6396BDCF16
:1038C000E881F981EA0DFB1D85819681892BA1F1A3
:1038D00061E070E087819085A4D33C01D9D28C014E
:1038E000E881F981EA0DFB1D81859285258136816C
:1038F000200F311FAC01421B530B9A0147815085A9
:10390000421B530B70E060E00E944030E881F98177
:10391000EA0DFB1DE780F084458156819301B601D5
:10392000C201B9D28C01892B39F0E881F981EA0D05
:10393000FB1D85819681FED45FEF851A950A8DE087
:10394000A80EB11CB1CF31CA789408952F923F923E
:103950004F925F926F927F929F92AF92BF92CF925F
:10396000DF92EF92FF920F931F93CF93DF9300D0DC
:1039700000D000D0CDB7DEB70091360310913703E9
:10398000992493940115110509F43EC0A0903803C1
:10399000B09039030ADA982E8823B1F110923703D8
:1039A00010923603109239031092380310923A03A2
:1039B00010923B038FEF9FEFDC0180936F01909398
:1039C0007001A0937101B093720178947AD31E8331
:1039D0000D83C12CD12C7601C501B0E0A0E0898314
:1039E0009A83AB83BC8322242A94322C89819A81C6
:1039F000AB81BC81C816D906EA06FB06F4F0C80103
:103A000099D480E40E946C0F892D26960FB6F89405
:103A1000DEBF0FBECDBFDF91CF911F910F91FF9001
:103A2000EF90DF90CF90BF90AF909F907F906F907E
:103A30005F904F903F902F900895AD81BE81159675
:103A40008D919C91169720916501309166018217A6
:103A50009307D1F451968D919C91E6D5ED81FE812D
:103A600080819181B12CA12C412C512C3201892BC8
:103A700089F5BFEFCB1ADB0AEB0AFB0AED81FE8169
:103A80007396FE83ED83B2CFC114D104E104F10437
:103A900029F7892B19F7ED81FE81818992898F3F62
:103AA000980709F021D5AD81BE8152963C922E92A5
:103AB0005197D4CF8A0D9B1DDC018D919C9100976D
:103AC00009F038D4BFEF4B1A5B0A6B0A7B0AEDE0B2
:103AD000AE0EB11CAD81BE818D919C911197129655
:103AE0004C9150E070E060E044165506660677069B
:103AF0000CF320D4BECFCF93DF93EA0127DF8111EF
:103B000009C082E090E09983888385EF9FEFDF9181
:103B1000CF91089581E090E00E945E0F81E090E0F7
:103B20009983888390E080E0F2CF10DF1092330316
:103B300010923203089542E050E064E072E00C9489
:103B40007C0FFF920F931F93CF93DF938A01EC01B9
:103B5000C60FD71FF980B4D20897F816190671F06E
:103B600068F082E090E0F801918380838EEF9FEF10
:103B7000DF91CF911F910F91FF9008956C817D810E
:103B80008E819F814B810E941312811108C082E0B7
:103B900090E0F8019183808384EF9FEFE9CFF98073
:103BA0000E940E124F2D50E0BE01685F7F4F0E94B1
:103BB000373089810E947D1281E090E0F801918385
:103BC000808390E080E0D4CFDF92EF92FF920F935A
:103BD0001F93CF93DF938A01EC01C60FD71F0E947A
:103BE0000E127C01D9806CD2DD2059F0029721E0C1
:103BF00030E0D816190619F010F030E020E0232B41
:103C000079F482E090E0F801918380838EEF9FEF5A
:103C1000DF91CF911F910F91FF90EF90DF9008956A
:103C2000EF2841F482E090E0F8019183808384EFF3
:103C30009FEFEECFF9800E940E124F2D50E0BE0193
:103C40006E5F7F4F0E94373089810E947D1281E034
:103C500090E0F8019183808390E080E0D9CF8BE9F8
:103C60009DE190933D0380933C03089580913C0334
:103C700090913D0308950895FC0111821082938371
:103C800082830895DB011D921C92DC011296ED9156
:103C9000FC9113977183608313967C936E931297B4
:103CA0000895FC0180819181DB018D939C93A0811B
:103CB000B181109741F08D919C9191838083892BE4
:103CC00011F4F383E2830895FC0180819181DB018B
:103CD0008D939C93892B11F473836283718360832A
:103CE0000895FC0111821082938382830895CF93FB
:103CF000DF9300D0CDB7DEB71A821982F894BE01E7
:103D00006F5F7F4F83E493E0CCDF89819A810097D6
:103D100009F010D389819A81892B89F7BE016F5FE1
:103D20007F4F87E493E0BDDF89819A81009709F096
:103D300001D389819A81892B89F778940F900F900C
:103D4000DF91CF910895CF93DF9300D0CDB7DEB749
:103D50001A821982F894BE016F5F7F4F8FE393E060
:103D6000A0DF89819A81009709F0E4D289819A8144
:103D7000892B89F778940F900F90DF91CF91089558
:103D800081E0089590E080E00895EF92FF920F9314
:103D90001F93CF93DF9300D0CDB7DEB71A8219827D
:103DA00080913E0307EF1FEF8823A1F1F894BE0135
:103DB0006F5F7F4F87E493E074DF789489819A8105
:103DC000EE24E394F12C892B51F4F894BE016F5F3B
:103DD0007F4F83E493E065DF7894F12CE12C8981B7
:103DE0009A810EEF1FEF0097A9F0FC0142815381E9
:103DF00064E070E06BD68C01892B61F0F8946981E6
:103E00007A81C701880F991F880F991F8D5B9C4F7E
:103E10005BDF7894C8010F900F90DF91CF911F91D5
:103E20000F91FF90EF9008950F931F93CF93DF931F
:103E300000D000D0CDB7DEB71C821B821A82198257
:103E400080913E0307EF1FEF8823C1F0AE014D5F65
:103E50005F4F64E070E0CE010196ABD68C01892BF8
:103E600069F4E981FA818B819C8193838283F89440
:103E700069817A818FE393E005DF7894C8010F9020
:103E80000F900F900F90DF91CF911F910F91089598
:103E9000B0D7049608958F929F92AF92BF92CF921F
:103EA000DF92EF92FF920F931F93CF93DF9300D097
:103EB000CDB7DEB71A821982BC016F5F7F4F6330C6
:103EC000710598F0AA24AA94BA2CC5010F900F90FE
:103ED000DF91CF911F910F91FF90EF90DF90CF90E6
:103EE000BF90AF909F908F9008954115510551F369
:103EF000480159018A016C01CBDF8815990511F73A
:103F0000E114F104F9F28E0D9F1DA816B906D0F246
:103F100080913E038823F1F0F894B5016450710953
:103F20009701AE014F5F5F4FC8010496D7D65C0181
:103F3000892B71F489819A81F80193838283C60168
:103F4000880F991F880F991FB8018D5B9C4F9ADECF
:103F50007894BBCF87EFA82EBB24BA94B6CFAF928C
:103F6000BF92CF92DF92EF92FF920F931F93CF9366
:103F7000DF9300D0CDB7DEB71A821982892B09F002
:103F800047C06115710509F443C04115510509F495
:103F90003FC02115310509F43BC001151105C1F1E0
:103FA00080913E038823B9F179016A015B01F8949D
:103FB000BE016F5F7F4F8FE393E073DE789489815A
:103FC0009A81009759F1DC0112966D917C91A801BC
:103FD00004969DD68C01E981FA81D501ED93FC937D
:103FE000828193810496F6019183808351DFD7010A
:103FF0008D939C93C8010F900F90DF91CF911F91EB
:104000000F91FF90EF90DF90CF90BF90AF90089509
:104010000FEF1FEFEFCF07EF1FEFECCF0EEF1FEF0C
:10402000E9CFCF93DF93EC01672B71F4EBD68C17BC
:104030009D0760F0DED62496C80FD91FDDD68C0F01
:104040009D1FDF91CF910895DAD6F1CF90E080E007
:10405000F8CF0F931F93CF93DF9320913E0321114D
:104060002BC08B01EC0183E493E006DE87E493E050
:1040700003DE8FE393E000DE97D00097C1F4C2D651
:1040800070E060E0CEDF43E751E062E070E07ED1B7
:10409000009769F48091730190917401C5D6B801BD
:1040A000CE01FAD4009719F421E020933E03DF916A
:1040B000CF911F910F91089584EF9FEFF8CF9FC686
:1040C000A1C6CF93DF93A1D6EC01892B11F40FDEAB
:1040D0003ADECE01DF91CF910895CF93DF9395D64D
:1040E000EC01892B09F403DECE01DF91CF91089515
:1040F00080917301909174010895CF93DF93809123
:104100003E03D0E0C0E08823D1F093D6EC01892BA8
:10411000B1F4EDDD18DE8091730190917401E4D16A
:10412000E5D2EC01892B59F483E493E0DADD87E4EE
:1041300093E0D7DD8FE393E0D4DD10923E03CE0110
:10414000DF91CF910895EF92FF920F931F93CF933A
:10415000DF93EC017A018B010F5F1F4F0E9DA001D1
:104160000F9D500D1E9D500D112470E060E00E94C7
:10417000403090E080E0F0E0E0E02FEFE816F90654
:1041800039F4DF91CF911F910F91FF90EF90089537
:104190001A8219822883309711F0D283C183019645
:1041A000FE01C00FD11FEACFCF92DF92EF92FF92B4
:1041B0000F931F93CF93DF9307E414E00C7F43E04A
:1041C00050E065E771E08BE791E013D485E7E82ED6
:1041D00081E0F82E9BE7C92E91E0D92EC6EBD4E002
:1041E000D7014D915D917D01F601619171916F0152
:1041F000198308835D834C835B834A837F836E834B
:104200009B012F5F3F4F249FC001259F900D349F3E
:10421000900D1124998788870115110511F0C801A7
:1042200092DF88859985080F191F2A96FBE7EF16FC
:10423000F1E0FF06A9F6EDE4F3E087EFDF011D9260
:104240008A95E9F710924C0310924B031092D50413
:104250001092D4041092D9041092D8041092D7046A
:104260001092D6041092DB041092DA041092DD044E
:104270001092DC041092DF041092DE041092E3042A
:104280001092E2041092E1041092E0041092E5040E
:104290001092E4041092E7041092E6041092B30422
:1042A0001092B2041092B5041092B40490E080E031
:1042B000DF91CF911F910F91FF90EF90DF90CF9002
:1042C00008950097F1F0F894ABE7B1E0E6EBF4E085
:1042D00030E020E04D915D9148175907A8F04281E8
:1042E00053814115510581F08AE0829FF001839F3F
:1042F000F00D1124EA54FB4F80819181009759F40D
:10430000789490E080E008952F5F3F4F3A962330F5
:10431000310501F7F5CFDC0111966D917C91718328
:1043200060834150510953834283FC012193CF01A3
:1043300078940895009749F1DC018E91853041F41D
:10434000E091B404F091B5043097F9F0CD010994EF
:104350008530D8F4282F30E0F8948FEF8C938AE0E2
:10436000829FF001839FF00D1124EA54FB4F80815E
:10437000918112969C938E931197B183A083828131
:10438000938101969383828378940895CF92DF92EC
:10439000EF92FF920F931F93CF93DF939C0180E5E1
:1043A00093E08C7F4115510509F49BC0211531051F
:1043B00009F497C06115710509F493C07A01AB0146
:1043C000B9016D5F7F4F6C7F9B012F5F3F4F249F33
:1043D0008001259F100D349F100D1124F894209119
:1043E000D4043091D504232B59F42091DC0430916E
:1043F000DD042115310569F12017310708F058C097
:104400002091DE043091DF04232B91F42091DC0411
:104410003091DD04820F931F2091E6043091E70470
:104420002115310509F441C02017310708F056C0A5
:104430007894CFEFDFEF86EF9FEFF701D183C08352
:10444000DF91CF911F910F91FF90EF90DF90CF9070
:104450000895C3E0D0E0C0904B03D0904C0324EF0C
:1044600030E02C193D092017310710F32AE02C9F6A
:10447000F0012D9FF00D1124EA54FB4F91838083AE
:1044800055834483538342837783668311870087F0
:10449000009709F058DE0C0D1D1D10934C0300937E
:1044A0004B03789490E080E0C8CFC4E0D0E0D3CF55
:1044B000C3E0D0E02AE02C9FF0012D9FF00D1124E5
:1044C000EA54FB4F91838083558344835383428313
:1044D00077836683009729F336DEE3CFC4E0D0E02C
:1044E000E9CF8FEF9FEFACCF9C010397029708F0C5
:1044F00069C0F89484E09AE0482F50E0241735070B
:104500000CF44DC091E08AE0829FF001839FF00D92
:104510001124EA54FB4F11821082158214821382F7
:104520001282178216829923B1F18091D40490915E
:10453000D504892BA9F42091DC043091DD042115E8
:10454000310571F080914B0390914C03821B930BCA
:1045500090934C0380934B031092DD041092DC0483
:104560008091DE049091DF04892BA9F42091E60468
:104570003091E7042115310571F080914B03909142
:104580004C03821B930B90934C0380934B0310922C
:10459000E7041092E604789490E080E00895949FF8
:1045A000F001959FF00D1124EA54FB4F4081518199
:1045B000452B31F440855185452B11F481509CCF1A
:1045C00090E0A1CF8FEF9FEF08954115510549F17C
:1045D000009739F16115710521F1F8942091B20429
:1045E0003091B304232BB9F42091B4043091B50475
:1045F000232B89F49093B3048093B2047093B50491
:104600006093B404789425E030E090E080E0FA0113
:1046100031832083089578942FEF3FEF86EF9FEF4B
:10462000F6CF8FEF9FEF0895059769F4F8941092F5
:10463000B3041092B2041092B5041092B4047894AA
:1046400090E080E008958FEF9FEF08956115710568
:1046500019F4F0E0E0E011C08530910581F4E091BB
:10466000B204F091B3043097A1F3CB010196099500
:10467000009779F3FC0185E08193CF0108959C01B7
:10468000235031092230310520F72AE0289FD0013C
:10469000299FB00D1124AA54BB4F2D913C91119725
:1046A000232BB9F216962D913C91179726173707B1
:1046B00080F2F89412962D913C91139721153105B3
:1046C00029F0ED91FC911197309711F47894C1CFB6
:1046D0004181528111965C934E932150310913967A
:1046E0003C932E93129781937894C7CFE4E4F4E03F
:1046F0008EE6DF011D928A95E9F7EDE4F3E087EF9E
:10470000DF011D928A95E9F710924C0310924B033A
:10471000E6EBF4E082E3DF011D928A95E9F7E2EB34
:10472000F4E084E0DF011D928A95E9F790E080E0F3
:104730000895CF93DF93C0918101D0918201CF3F43
:10474000DC0759F442D4909382018093810197FF52
:1047500009C0D0938201C093810184EF9FEFDF9164
:10476000CF91089590E080E0FACF8230910528F44F
:104770008093E80490E080E008958FEF9FEF089524
:104780004F925F926F927F92AF92BF92CF92DF92E1
:10479000EF92FF920F931F93CF93DF9300D0CDB78B
:1047A000DEB71A821982009709F479C06115710584
:1047B00009F475C0209181013091820107EF1FEF4C
:1047C0002F3F3F4F09F445C06B015C01412C512C38
:1047D0003201F12CE12C10E000E09E012F5F3F4FF1
:1047E000A6014E195F09B5016E0D7F1D80918101F3
:1047F0009091820149D4892B09F04BC089819A811B
:10480000009741F4E114F10429F42091E8042223F3
:1048100009F442C0E80EF91EEC14FD04D0F480E85F
:10482000481684E858068EE16806710420F560E0B9
:1048300070E0CB010E94A82C2AE0420E511C611CA2
:10484000711C0A3F4FEF140721F0043F8FEF180748
:10485000A1F4C8010F900F90DF91CF911F910F919C
:10486000FF90EF90DF90CF90BF90AF907F906F90D0
:104870005F904F90089501EF1FEF81E090E0013FBE
:104880002FEF120711F090E080E0892B09F4A5CFFB
:10489000E0CF04EF1FEFDDCF0AEF1FEFDACF0FEF0E
:1048A0001FEFD7CF4F925F926F927F92AF92BF92DE
:1048B000CF92DF92EF92FF920F931F93CF93DF93EC
:1048C00000D0CDB7DEB71A821982009709F478C0FC
:1048D0006115710509F474C0209181013091820144
:1048E00007EF1FEF2F3F3F4F09F444C06B015C01FE
:1048F000412C512C3201F12CE12C10E000E09E0102
:104900002F5F3F4FA6014E195F09B5016E0D7F1D48
:1049100080918101909182016DD3892B09F04AC069
:1049200089819A81009741F4E114F10429F42091DE
:10493000E804222309F441C0E80EF91EEC14FD043A
:10494000C8F480E4481682E458068FE068067104D3
:1049500018F560E070E0CB01FBD72AE0420E511C55
:10496000611C711C0E3F4FEF140721F0043F8FEFC5
:104970001807A1F4C8010F900F90DF91CF911F91FC
:104980000F91FF90EF90DF90CF90BF90AF907F900E
:104990006F905F904F90089502EF1FEF81E090E0DD
:1049A000023F2FEF120711F090E080E0892B09F40D
:1049B000A6CFE0CF04EF1FEFDDCF0EEF1FEFDACF72
:1049C0000FEF1FEFD7CF80918101909182018F3F30
:1049D000980749F0F2D2892B49F48FEF9FEF90931B
:1049E00082018093810190E080E0089584EF9FEF41
:1049F0000895CF92DF92EF92FF920F931F93CF9380
:104A0000DF9321E04115510509F020E041505109A3
:104A100021112CC0DC01FB01D12CC12C21E022C0D2
:104A20003FEFC31AD30A7D010D911D91E701EA8082
:104A3000FB80E016F106A8F420813181E280F3804A
:104A4000F182E08233832283ED90FC9011979D01E7
:104A500022503109E901F982E88211961C930E93E4
:104A600020E03296C416D506D8F2D2CFDF91CF918E
:104A70001F910F91FF90EF90DF90CF900895FC0170
:104A8000680F791F90E080E0E617F70709F40895B2
:104A90002191820F911DF8CF2091E904211113C0BB
:104AA00048DE009791F41092EF041092EE041092F9
:104AB000ED041092EC041092EB041092EA0421E051
:104AC0002093E904089584EF9FEF0895AF92BF9279
:104AD000CF92DF92EF92FF920F931F93CF93DF93CA
:104AE000009709F460C04630510508F45CC020917D
:104AF000E904C7EFDFEF222309F449C08C01060F58
:104B0000171FF801C080D180C114D10409F44EC030
:104B100096012A5F3F4F4217530708F447C07C01B4
:104B20008091EE049091EF0493838283B6016C5FD1
:104B30007F4F5801A60EB71EC801A1DFF501918372
:104B4000808364E070E0C8011BDEEC01892BF9F47E
:104B500081E090E00ADEB601C801049611DEEC01A6
:104B6000892B91F462E070E0C5010ADEEC01892B2B
:104B700059F4C701DFDB8091EE049091EF040196B8
:104B80009093EF048093EE0490E080E0EEDDCE01A0
:104B9000DF91CF911F910F91FF90EF90DF90CF9019
:104BA000BF90AF900895CFEFDFEFF1CFC9EFDFEF08
:104BB000EECF6F927F928F929F92AF92BF92CF92E1
:104BC000DF92EF92FF920F931F93CF93DF9300D06A
:104BD00000D0CDB7DEB7009709F47AC04115510572
:104BE00009F476C02091E90407EF1FEF222309F4AE
:104BF0004DC03A017B015C0164E070E0CE0101969A
:104C000051DE8C01892B09F041C009811A810115FF
:104C1000110509F45AC0480186E0880E911CB701BD
:104C2000680D791D80918301909184010FDD6C01E5
:104C3000009709F450C0A70170E060E00E94403086
:104C400089819A81AB81BC81EC0CFD1CF7018193B9
:104C50009193A193B1937F0181E090E086DDB8014B
:104C6000C70120DE892B31F562E070E0C701800FBB
:104C7000911F18DE8C01892BE9F490E080E075DD4E
:104C8000F501D182C082F30191828082C8010F9028
:104C90000F900F900F90DF91CF911F910F91FF9088
:104CA000EF90DF90CF90BF90AF909F908F907F90CC
:104CB0006F90089590E080E058DDF5011182108238
:104CC000F30111821082C60135DB09EF1FEFDECF41
:104CD0000FEF1FEFDBCF06EF1FEFD8CF0097A1F04C
:104CE0004115510589F02115310571F0F90136960C
:104CF0006E177F0748F0DC012D933C93DA01ED93AA
:104D0000FC9390E080E008958FEF9FEF0895AF92BD
:104D1000BF92CF92DF92EF92FF920F931F93CF93A8
:104D2000DF93009709F45FC04115510509F45BC09A
:104D30006530710508F457C02091E904C7EFDFEF33
:104D4000222391F1DC01CD90DC9011971296ED9128
:104D5000FC9196012A5F3F4FC9EFDFEF2617370717
:104D600019F5C091EA04D091EB04209749F521E0B0
:104D700030E03093EB042093EA047A018C01F09345
:104D8000ED04E093EC045601B4E0AB0EB11CB501A8
:104D900076DE0A0D1B1DF8012081318182179307F1
:104DA00029F5D701CD92DC92CE01DF91CF911F91F1
:104DB0000F91FF90EF90DF90CF90BF90AF9008954C
:104DC0002091EC043091ED042F5F3F4FCCEFDFEFEB
:104DD000E217F30790F2CBEFDFEF2E173F0768F2F1
:104DE000D0E0C0E0CACFCFEFDFEFDECFC3EFDFEF21
:104DF000DBCF84E090E0089582E090E008958CEFAE
:104E00009FEF089580E290E008951092EF041092D1
:104E1000EE041092ED041092EC041092EB04109248
:104E2000EA0490E080E008959093840180938301E8
:104E300008958091E904882391F0C5DD009789F4F5
:104E40001092EF041092EE041092ED041092EC0414
:104E50001092EB041092EA041092E904089590E095
:104E600080E00895009749F06115710531F0FC016B
:104E700011821082FB01118210820895F3CF26E087
:104E800030E040E052EC61E070E090E080E000C093
:104E90001092F1041092F00489309105E8F48C5AD4
:104EA000984DFC010C9418305D2766276D277027FC
:104EB0007327762779277C27822781E090E09093DB
:104EC000F1048093F0048FEF94E06AC782E090E0F1
:104ED0009093F1048093F004089584E090E0F8CF7B
:104EE00088E090E0F5CF80E190E0F2CF80E290E0C2
:104EF000EFCF80E490E0ECCF80E890E09093F10475
:104F00008093F0048091F0049091F1049160E0CFDF
:104F10001F920F920FB60F9211242F933F934F932E
:104F20005F936F937F938F939F93AF93BF93EF9311
:104F3000FF938FE89DEF9093850080938400B7D016
:104F4000FF91EF91BF91AF919F918F917F916F9161
:104F50005F914F913F912F910F900FBE0F901F9037
:104F600018958FE89DEF9093850080938400AFE6BD
:104F7000B0E08C918E7F8C93E0E8F0E080818C7FB4
:104F80008083E1E8F0E08081877E80838081846097
:104F9000808380818C7F80838C9181608C93089545
:104FA000EFE6F0E0808190819E7F9083817008958C
:104FB00081E008951092F204089568EE73E080E0B5
:104FC00090E0C6D490E080E0089526E030E040E034
:104FD00052EC61E070E090E080E05ADF8FEF94E007
:104FE00015D6892B21F08FEF94E02AD6F7CF90E0E9
:104FF00080E00895CF92DF92EF92FF920F931F937C
:10500000CF93DF936B017A01E901198218828FEF48
:1050100094E0FCD5892B69F18601CC24C39482E00D
:10502000D82E8091F204811110C08FEF94E008D641
:105030000297B9F7C092F204F801D1928F018881EA
:105040009981019699838883ECCF888199818E1507
:105050009F0578F48FEF94E0F3D58F3F9807A9F37D
:10506000F80181938F0188819981019699838883C2
:10507000ECCF90E080E0DF91CF911F910F91FF90F6
:10508000EF90DF90CF9008950F931F93CF93DF930E
:10509000EA0189018FEF94E067D7F801D183C083DB
:1050A00090E080E0DF91CF911F910F910895CF9212
:1050B000DF92EF92FF928091F30491E0980F90932A
:1050C000F304882369F021E030E03093F504209365
:1050D000F4048093F304FF90EF90DF90CF90089555
:1050E0007894E0918A01F0918B01C28CD38CE48C8E
:1050F000F58C0E948C04B701A60190E080E00E942C
:10510000FE03F8948091F3048150E3CF0F931F9333
:10511000CF93DF931092F9051092F8054FD4AFDECC
:10512000C0918A01D0918B01198218826FEF7FEFB5
:10513000CB010E94810470E060E090E080E00E947A
:105140000103009709F03AC00E945D07F894789433
:105150008A819B81BC01685F7F4F0E940403892B79
:1051600059F46FEF7FEFCB010E9494030E947B0400
:10517000882311F081E08EA3F894F3DE0E947E0470
:10518000882311F080E008C00E947B048111FACFCF
:1051900081E09EA19111F6CF8093F80578940E944A
:1051A000590F8C0178948091F80581110CC00E94F0
:1051B00050080E946004F89490E080E0DF91CF9165
:1051C0001F910F9108950E945E040E947E0488231F
:1051D000D9F081E08093F9059091F90581E0911172
:1051E00080E08093F8058091F9058111D9DE0130C6
:1051F000110529F40E94590F892B09F4DBDE0E9466
:10520000590F8C01D5DECFCF0E947B048111E1CFF5
:1052100081E09EA19111DECF80E0DCCF5058BB270A
:10522000AA270ED0FFC1F0D130F0F5D120F031F433
:105230009F3F11F41EF4E5C10EF4E095E7FBB2C107
:10524000E92F01D280F3BA17620773078407950725
:1052500018F071F49EF530C20EF4E0950B2EBA2FC3
:10526000A02D0B01B90190010C01CA01A00111246C
:10527000FF27591B99F0593F50F4503E68F11A1618
:10528000F040A22F232F342F4427585FF3CF4695A9
:1052900037952795A795F0405395C9F77EF41F16CB
:1052A000BA0B620B730B840BBAF09150A1F0FF0F95
:1052B000BB1F661F771F881FC2F70EC0BA0F621F81
:1052C000731F841F48F4879577956795B795F79571
:1052D0009E3F08F0B3CF9395880F08F09927EE0F03
:1052E0009795879508953AD108F481E008950CD0F8
:1052F00099C191D140F088D130F021F45F3F19F08D
:1053000051C15111DAC17DC19ED198F39923C9F3DE
:105310005523B1F3951B550BBB27AA2762177307BB
:10532000840738F09F5F5F4F220F331F441FAA1F6F
:10533000A9F333D00E2E3AF0E0E830D0915050402F
:10534000E695001CCAF729D0FE2F27D0660F771FDD
:10535000881FBB1F261737074807AB07B0E809F0BF
:10536000BB0B802DBF01FF2793585F4F2AF09E3F54
:10537000510568F017C1A1C15F3FECF3983EDCF323
:10538000869577956795B795F7959F5FC9F7880FCD
:10539000911D9695879597F90895E1E0660F771F1F
:1053A000881FBB1F621773078407BA0720F0621BB0
:1053B000730B840BBA0BEE1F88F7E095089504D0A9
:1053C0006894B1117AC1089546D188F09F5790F042
:1053D000B92F9927B751A0F0D1F0660F771F881F1A
:1053E000991F1AF0BA95C9F712C0B13081F064D193
:1053F000B1E0089561C1672F782F8827B85F39F031
:10540000B93FCCF3869577956795B395D9F73EF478
:1054100090958095709561957F4F8F4F9F4F089520
:10542000E89409C097FB3EF490958095709561953E
:105430007F4F8F4F9F4F9923A9F0F92F96E9BB27F4
:105440009395F695879577956795B795F111F8CF70
:10545000FAF4BB0F11F460FF1BC06F5F7F4F8F4FDB
:105460009F4F16C0882311F096E911C0772321F0D1
:105470009EE8872F762F05C0662371F096E8862F69
:1054800070E060E02AF09A95660F771F881FDAF7C0
:10549000880F9695879597F90895F7D080F09F37F4
:1054A00040F491110EF009C160E070E080E89FEBDC
:1054B000089526F41B16611D711D811D79C093C0CE
:1054C000A3D018F011F0A7D038F49BC0F6C0E92F94
:1054D000BAD0B0F35523C9F3E7FB6217730784070B
:1054E0009507A8F199F3E92FFF2788232AF0319730
:1054F000660F771F881FDAF7952F5527442332F060
:1055000091505040220F331F441FD2F7BB27E91B95
:10551000F50B621B730B840BB109C1F222F4620F0D
:10552000731F841FB11D31972AF0660F771F881FE4
:10553000BB1FEFCF915050405AF041F0882332F01A
:10554000660F771F881F91505040C1F793954BC04D
:105550008695779567959F5FD9F7F8CF990F0008E3
:10556000550FAA0BE0E8FEEF16161706E807F90735
:10557000C0F012161306E407F50798F0621B730BD0
:10558000840B950B39F40A2661F0232B242B252B51
:1055900021F408950A2609F4A140A6958FEF811DF4
:1055A000811D089597F99F6780E870E060E0089595
:1055B000882371F4772321F09850872B762F07C02A
:1055C000662311F499270DC09051862B70E060E09E
:1055D0002AF09A95660F771F881FDAF7880F96953D
:1055E000879597F908959F3F31F0915020F4879562
:1055F00077956795B795880F911D9695879597F93B
:1056000008959FEF80EC089500240A94161617065B
:1056100018060906089500240A94121613061406A3
:1056200005060895092E0394000C11F4882352F006
:10563000BB0F40F4BF2B11F460FF04C06F5F7F4FBE
:105640008F4F9F4F089557FD9058440F551F59F0A5
:105650005F3F71F04795880F97FB991F61F09F3F5F
:1056600079F087950895121613061406551FF2CF88
:105670004695F1DF08C0161617061806991FF1CFD8
:1056800086957105610508940895E5DFA0F0BEE7F1
:10569000B91788F4BB279F3860F41616B11D672F21
:1056A000782F8827985FF7CF869577956795B11DF6
:1056B00093959639C8F30895E894BB276627772712
:1056C000CB0197F908954ADF08F48FEF08950BD0C6
:1056D000A9CF9ADF28F09FDF18F0952309F062CF59
:1056E00090CF1124EACFAFDFA0F3959FD1F3950FB0
:1056F00050E0551F629FF001729FBB27F00DB11D56
:10570000639FAA27F00DB11DAA1F649F6627B00DE5
:10571000A11D661F829F2227B00DA11D621F739FCE
:10572000B00DA11D621F839FA00D611D221F749FDC
:105730003327A00D611D231F849F600D211D822F23
:10574000762F6A2F11249F5750408AF0E1F088236A
:105750004AF0EE0FFF1FBB1F661F771F881F915077
:105760005040A9F79E3F510570F01CCFA6CF5F3F78
:10577000ECF3983EDCF3869577956795B795F795AA
:10578000E7959F5FC1F7FE2B880F911D9695879532
:1057900097F9089508958230E8F4E82FF0E0EE0FCD
:1057A000FF1FEB57FE4F71836083813041F0809182
:1057B00069008C7F482B40936900E89A0895809196
:1057C0006900837F440F551F440F551F482B40939A
:1057D0006900E99A08951F920F920FB60F92112453
:1057E0002F933F934F935F936F937F938F939F93E9
:1057F000AF93BF93EF93FF93E0918501F091860102
:105800000995FF91EF91BF91AF919F918F917F91FA
:105810006F915F914F913F912F910F900FBE0F901D
:105820001F9018951F920F920FB60F9211242F936D
:105830003F934F935F936F937F938F939F93AF9318
:10584000BF93EF93FF93E0918701F0918801099551
:10585000FF91EF91BF91AF919F918F917F916F9148
:105860005F914F913F912F910F900FBE0F901F901E
:1058700018951F920F920FB60F9211242F933F93FA
:105880008F939F93AF93BF938091F7049091F80407
:10589000A091F904B091FA043091F60423E0230FAB
:1058A0002D3758F50196A11DB11D2093F604809364
:1058B000F7049093F804A093F904B093FA0480914C
:1058C000FB049091FC04A091FD04B091FE040196AC
:1058D000A11DB11D8093FB049093FC04A093FD04D3
:1058E000B093FE04BF91AF919F918F913F912F9103
:1058F0000F900FBE0F901F90189526E8230F029669
:10590000A11DB11DD2CF3FB7F8948091FB049091B7
:10591000FC04A091FD04B091FE0426B5A89B05C02F
:105920002F3F19F00196A11DB11D3FBFBA2FA92F1E
:10593000982F8827BC01CD01620F711D811D911D1B
:1059400042E0660F771F881F991F4A95D1F7089587
:105950008F929F92AF92BF92CF92DF92EF92FF927F
:105960006B017C01D0DF4B015C01C114D104E10467
:10597000F104D9F026D3C7DF681979098A099B0990
:10598000683E73408105910580F321E0C21AD10879
:10599000E108F10888EE880E83E0981EA11CB11C76
:1059A000C114D104E104F10431F7FF90EF90DF90CE
:1059B000CF90BF90AF909F908F900895789484B5CA
:1059C000826084BD84B5816084BD85B5826085BDFB
:1059D00085B5816085BDEEE6F0E0808181608083E1
:1059E000E1E8F0E0108280818260808380818160C4
:1059F0008083E0E8F0E0808181608083E1EBF0E08B
:105A0000808184608083E0EBF0E08081816080832E
:105A1000EAE7F0E080818460808380818260808317
:105A20008081816080838081806880831092C10042
:105A300008951F93CF93DF93182FEB0161E07DD082
:105A4000209731F460E0812FDF91CF911F91B1C099
:105A5000CF3FD10511F461E0F6CFE12FF0E0E85936
:105A6000FF4FE491E33031F140F4E130B1F0E23046
:105A7000E1F0C038D1057CF7E5CFE73029F1E83017
:105A800059F1E430B1F7809180008062809380000A
:105A9000D0938B00C0938A0004C084B5806884BD15
:105AA000C7BDDF91CF911F91089584B5806284BDF9
:105AB000C8BDF7CF80918000806880938000D0932C
:105AC0008900C0938800EDCF8091B00080688093FA
:105AD000B000C093B300E5CF8091B00080628093A6
